:1008000075A00F75A0FE20A40312091B20A50312DA
:10081000089020A60312098720A70312095575A086
:10082000FD20A40312091B20A50312089020A60393
:1008300012098720A70312095575A0FC20A40312F2
:10084000091B20A50312089020A60312098720A7E0
:100850000312095575A0FB20A40312091B20A50350
:1008600012089020A60312098720A70312095575C4
:10087000A0FA20A40312091B20A50312089020A6A9
:100880000312098730A7030208031209550208035F
:10091B00C2901208D8D296C2971208E6C296D29508
:10092B001208E6C295D2941208E6C294D29312082A
:10093B00E6C293D2921208E6C292D2911208E6C294
:0A094B0091D2907F147E000208EAAA
:10089000D290C291C292C293C294C295C296C2979C
:1008A0001208E6D291C2901208E6D292C2911208C2
:1008B000E6C292D2931208E6C293D2941208E6C21C
:1008C00094D2951208E6C295D2961208E6C296D244
:0808D000977F147E000208EA84
:10098700D2901208D8C297C290D291D2961208E696
:10099700C296C291D292D2951208E6C292C295D25D
:0409A70093D2942231
:10095500C290C291C292D293D294C295C296C297C6
:100965001208E6C293C294D292D2951208E6D296A4
:10097500D291C292C2951208E6C291C296D290D285
:020985009722B7
:1008D800C291C292C293C294C295C296D2977F1413
:0208E8007E0090
:0408EA008E088F09DC
:1008EE00900000AF82AE83E4FCFD7B407A9CF9F869
:1008FE00D31209AB4003A380EAE4FFFEC3EF9509D0
:0C090E00EE950850070FBF00010E80F0AE
:01091A0022BA
:030000000209C131
:0C09C100787FE4F6D8FD7581090208007B
:1009AB00EB9FF5F0EA9E42F0E99D42F0EC6480C8C3
:0609BB0064809845F02263
:00000001FF
