:050B2B0048454C4C4F51
:10090C0075B038120B0775B00E120B0775B00612C6
:10091C000B0775B080120B07120A7C75A00F75A01F
:10092C00FE20A403120A4220A5031209B720A60335
:10093C00120AE320A703120AB175A0FD20A403122A
:10094C000A4220A5031209B720A603120AE320A726
:10095C0003120AB175A0FC20A403120A4220A503BD
:10096C001209B720A603120AE320A703120AB175D5
:10097C00A0FB20A403120A4220A5031209B720A64B
:10098C0003120AE320A703120AB175A0FA20A403EC
:10099C00120A4220A5031209B720A603120AE3305B
:0B09AC00A70302092A120AB102092A5F
:100A4200C2901209FFD296C297120A0DC296D2958F
:100A5200120A0DC295D294120A0DC294D293120AAE
:100A62000DC293D292120A0DC292D291120A0DC2F3
:0A0A720091D2907F147E00020A1159
:1009B700D290C291C292C293C294C295C296C29774
:1009C700120A0DD291C290120A0DD292C291120A46
:1009D7000DC292D293120A0DC293D294120A0DC27B
:1009E70094D295120A0DC295D296120A0DC296D2CA
:0809F700977F147E00020A1133
:100AE300D2901209FFC297C290D291D296120A0DE8
:100AF300C296C291D292D295120A0DC292C295D2D7
:040B030093D29422D3
:100AB100C290C291C292D293D294C295C296C29769
:100AC100120A0DC293C294D292D295120A0DD296F5
:100AD100D291C292C295120A0DC291C296D290D2FF
:020AE10097225A
:1009FF00C291C292C293C294C295C296D2977F14EB
:020A0F007E0067
:040A11008E0D8F0EA9
:100A1500900000AF82AE83E4FCFD7B407A9CF9F840
:100A2500D31208F64003A380EAE4FFFEC3EF950E58
:0C0A3500EE950D50070FBF00010E80F081
:010A41002292
:0C0B0700C2B0C2B1D2B2120A0DC2B222BA
:0C0B1300D2B0C2B1D2B2120A0DC2B2229E
:100A7C0078087C007D007BFF7A0B792B7E007F054C
:100A8C001208D0E4F50FF51074082510F8E6F5B04F
:100A9C00120B130510E5107002050FC39405E50F3A
:040AAC00940040E48E
:010AB0002223
:03000000020B1FD1
:0C0B1F00787FE4F6D8FD75811002090C07
:10080000E709F608DFFA8046E709F208DFFA803EDA
:1008100088828C83E709F0A3DFFA8032E309F608C7
:10082000DFFA8078E309F208DFFA807088828C832F
:10083000E309F0A3DFFA806489828A83E0A3F608E3
:10084000DFFA805889828A83E0A3F208DFFA804CBD
:1008500080D280FA80C680D4806980F28033801094
:1008600080A680EA809A80A880DA80E280CA8033FD
:1008700089828A83ECFAE493A3C8C582C8CCC58375
:10088000CCF0A3C8C582C8CCC583CCDFE9DEE78045
:100890000D89828A83E493A3F608DFF9ECFAA9F0C4
:1008A000EDFB2289828A83ECFAE0A3C8C582C8CC1A
:1008B000C583CCF0A3C8C582C8CCC583CCDFEADE33
:1008C000E880DB89828A83E493A3F208DFF980CC95
:1008D00088F0EF60010E4E60C388F0ED2402B4048E
:1008E0000050B9F582EB2402B4040050AF23234535
:0608F00082239008507302
:1008F600EB9FF5F0EA9E42F0E99D42F0EC6480C879
:0609060064809845F02218
:00000001FF
