:10080000759038C2A0120853C2A275900EC2A012F1
:100810000853C2A2759006C2A0120853C2A27590D6
:1008200080C2A0120853C2A2759050120851C2A2F1
:10083000759041120851C2A275904B120851C2A284
:10084000759048120851C2A2759049120851C2A26F
:010850002285
:0A085100D2A0C2A1D2A27F0A7E004D
:04085B008E088F096B
:10085F00900000AF82AE83E4FCFD7B407A9CF9F8F8
:10086F00D312088C4003A380EAE4FFFEC3EF95097F
:0C087F00EE950850070FBF00010E80F03E
:01088B00224A
:030000000208A251
:0C08A200787FE4F6D8FD7581090208009B
:10088C00EB9FF5F0EA9E42F0E99D42F0EC6480C8E3
:06089C0064809845F02283
:00000001FF
