:100800007590381209FC75900E1209FC759006124D
:1008100009FC7590801209FC75B00F75B0FE20B40C
:1008200006759037120A0420B506759034120A0432
:1008300020B606759031120A0420B7067590201272
:100840000A0475B0FD20B406759038120A0420B56C
:1008500006759035120A0420B606759032120A0405
:1008600020B706759030120A0475B0FB20B40675E7
:100870009039120A0420B506759036120A0420B683
:1008800006759033120A0420B73075903D120A04A1
:1008900075B0F720B7051209E0801F75B0F720B6D4
:1008A000051209CF801475B0F720B4051209BC8079
:1008B0000975B0F720B5031209A975B0F720B4097E
:1008C00075902F120A041209BC20B5097590781290
:1008D0000A041209A920B60975902D120A041209FA
:1008E000CF30B70302081B75902B120A041209E0DF
:0308F00002081BE0
:08097000C2A1D2A27F0A7E00A1
:040978008E0E8F0F41
:10097C00900000AF82AE83E4FCFD7B407A9CF9F8DA
:10098C00D312095A4003A380EAE4FFFEC3EF950F8C
:0C099C00EE950E50070FBF00010E80F01A
:0109A800222C
:0809FC00C2A0120970C2A22280
:080A0400D2A0120970C2A22267
:1009E000E50B250DF509E50A350CF508850990227A
:1009CF00C3E50B950DF509E50A950CF5088509901A
:0109DF0022F5
:1009A900AC0CAD0DAE0AAF0B1208F38E088F09859A
:0309B90009902280
:1009BC00AC0CAD0DAE0AAF0B1209058E088F098574
:0309CC000990226D
:030000000209F002
:0C09F000787FE4F6D8FD75810F02080046
:1008F300EF8DF0A4A8F0CF8CF0A428CE8DF0A42E19
:02090300FE22D2
:10090500BC000BBE0029EF8DF084FFADF022E4CCD6
:10091500F875F008EF2FFFEE33FEEC33FCEE9DEC9F
:10092500984005FCEE9DFE0FD5F0E9E4CEFD22EDE5
:10093500F8F5F0EE8420D21CFEADF075F008EF2F2F
:10094500FFED33FD4007985006D5F0F222C398FD20
:050955000FD5F0EA22BD
:10095A00EB9FF5F0EA9E42F0E99D42F0EC6480C814
:06096A0064809845F022B4
:00000001FF
