:1008000075903812090275900E1209027590061241
:1008100009027590801209027590481208FA7590C5
:10082000451208FA75904C1208FA75904C1208FAA5
:1008300075904F1208FA1208F71208F775902112F6
:1008400008FA7590201208FA7590481208FA759007
:100850006F1208FA7590571208FA7590201208FA6C
:100860007590411208FA7590521208FA7590451267
:1008700008FA7590201208FA7590C0120902759056
:10088000591208FA75906F1208FA7590551208FA05
:0C08900075903F1208FA75903F0208FABC
:08089C00C2A1D2A27F0A7E0076
:0408A4008E088F0922
:1008A800900000AF82AE83E4FCFD7B407A9CF9F8AF
:1008B800D31208D54003A380EAE4FFFEC3EF9509ED
:0C08C800EE950850070FBF00010E80F0F5
:0108D4002201
:08090200C2A012089CC2A2224F
:0308F700759021D8
:0808FA00D2A012089CC2A22248
:030000000208EB08
:0C08EB00787FE4F6D8FD75810902080052
:1008D500EB9FF5F0EA9E42F0E99D42F0EC6480C89A
:0608E50064809845F0223A
:00000001FF
