:1008A60075903812086BC2A275900E12086BC2A220
:1008B60075900612086BC2A275908012086BC2A2D0
:0708C6007FD27E040208CD81
:0A086B00C2A0C2A1D2A27F0A7E0043
:040875008E088F0951
:10087900900000AF82AE83E4FCFD7B407A9CF9F8DE
:10088900D31208554003A380EAE4FFFEC3EF95099C
:0C089900EE950850070FBF00010E80F024
:0108A5002230
:0408CD00AB07AA06C5
:1008D100EB4A601CAE08AF097C007D0A120800AA31
:1008E10004AB05AE08AF091208008E088F0980E03D
:0108F10022E4
:030000000208F201
:0C08F200787FE4F6D8FD7581090208A6A5
:10080000BC000BBE0029EF8DF084FFADF022E4CCDC
:10081000F875F008EF2FFFEE33FEEC33FCEE9DECA5
:10082000984005FCEE9DFE0FD5F0E9E4CEFD22EDEB
:10083000F8F5F0EE8420D21CFEADF075F008EF2F35
:10084000FFED33FD4007985006D5F0F222C398FD26
:050850000FD5F0EA22C3
:10085500EB9FF5F0EA9E42F0E99D42F0EC6480C81A
:0608650064809845F022BA
:00000001FF
