:100800007590381208A575900E1208A575900612FD
:1008100008A57590801208A5759050120891D29085
:10082000A29012088DD290A29012088DD290A29020
:0E08300012088DD290A290E433F59002089148
:08083E00C2A1D2A27F0A7E00D4
:040846008E088F0980
:10084A00900000AF82AE83E4FCFD7B407A9CF9F80D
:10085A00D31208774003A380EAE4FFFEC3EF9509A9
:0C086A00EE950850070FBF00010E80F053
:01087600225F
:0808A500C2A012083EC2A2220B
:04088D00E433F590CB
:08089100D2A012083EC2A2220F
:030000000208995A
:0C089900787FE4F6D8FD758109020800A4
:10087700EB9FF5F0EA9E42F0E99D42F0EC6480C8F8
:0608870064809845F02298
:00000001FF
