:10080000758920758DFD759850D28E3098FD85992B
:1008100008C298C28E759038120840C2A275900E18
:10082000120840C2A2759006120840C2A2759080BC
:0F083000120840C2A2850890D2A0120842C2A2AC
:01083F002296
:0A084000C2A0C2A1D2A27F1E7E005A
:04084A008E098F0A7A
:10084E00900000AF82AE83E4FCFD7B407A9CF9F809
:10085E00D312087B4003A380EAE4FFFEC3EF950AA0
:0C086E00EE950950070FBF00010E80F04E
:01087A00225B
:0300000002089162
:0C089100787FE4F6D8FD75810A020800AB
:10087B00EB9FF5F0EA9E42F0E99D42F0EC6480C8F4
:06088B0064809845F02294
:00000001FF
