:10080000E4F50D758920758DFD759850D28E309860
:10081000FD7408250DF8A699050DE50DB405E4C293
:100820009875903812088575900E12088575900697
:10083000120885759080120885E4F50D7408250D61
:10084000F8E6F59012088D050DE50DC3940540EC12
:010850002285
:08085100C2A1D2A27F147E00B7
:10085900E4FDFCE4FBFAC3EB9FEA9E50070BBB00E7
:0F086900010A80F20DBD00010CBC04E7BDFBE4E9
:01087800225D
:08088500C2A0120851C2A22218
:08088D00D2A0120851C2A22200
:030000000208797A
:0C087900787FE4F6D8FD75810D020800C0
:00000001FF
