:10080000C3E50994C8E5089400503FD2A0D2A17F67
:100810001E7E00120851C29012084BD29012084B53
:10082000D290D29112084DD290C2917F1E7E0012BA
:100830000851D290C2917F327E00120851D290C2EC
:0A084000917F327E0012085180B64D
:01084A00228B
:06084B00C2917F467E0011
:040851008E0A8F0B71
:10085500900000AF82AE83E4FCFD7B407A9CF9F802
:10086500D31208824003A380EAE4FFFEC3EF950B91
:0C087500EE950A50070FBF00010E80F046
:010881002254
:030000000208985B
:0C089800787FE4F6D8FD75810B020800A3
:10088200EB9FF5F0EA9E42F0E99D42F0EC6480C8ED
:0608920064809845F0228D
:00000001FF
