:10080000C3E50994C8E50894005055D2A0C2A1D20E
:10081000A2C2A37F1E7E0012086720800E20810BDB
:10082000C290C291C291C29212086320800C3081A2
:1008300009D290C291C29212086130800C208109C5
:10084000C290C291D292120861308005308102C2FA
:1008500090D291C292D2937F1E7E0012086780A030
:010860002275
:06086100C2937F467E00F9
:040867008E0A8F0B5B
:10086B00900000AF82AE83E4FCFD7B407A9CF9F8EC
:10087B00D31208984003A380EAE4FFFEC3EF950B65
:0C088B00EE950A50070FBF00010E80F030
:01089700223E
:030000000208AE45
:0C08AE00787FE4F6D8FD75810B0208008D
:10089800EB9FF5F0EA9E42F0E99D42F0EC6480C8D7
:0608A80064809845F02277
:00000001FF
