:10080000C3E50994C8E5089400502BD2B0C2B1C228
:10081000B2D2B37F1E7E0012083DD2B0D2B1C2B2B6
:10082000120837C2B0D2B1D2B2120837C2B0C2B1C8
:06083000D2B2D2B380CA6F
:01083600229F
:06083700C2B37F467E0003
:04083D008E0A8F0B85
:10084100900000AF82AE83E4FCFD7B407A9CF9F816
:10085100D312086E4003A380EAE4FFFEC3EF950BB9
:0C086100EE950A50070FBF00010E80F05A
:01086D002268
:030000000208846F
:0C088400787FE4F6D8FD75810B020800B7
:10086E00EB9FF5F0EA9E42F0E99D42F0EC6480C801
:06087E0064809845F022A1
:00000001FF
