:10080000C290D291D292E4F508F509209012E50940
:1008100020E00D7F147E00120854C292D2918019FC
:10082000209012E50930E00D7F147E00120854D2AA
:1008300092C2918004D292D2910509E50970020515
:1008400008C3940FE508940040C10509E50970B696
:04085000050880B265
:040854008E0A8F0B6E
:10085800900000AF82AE83E4FCFD7B407A9CF9F8FF
:10086800D31208854003A380EAE4FFFEC3EF950B8B
:0C087800EE950A50070FBF00010E80F043
:010884002251
:0300000002089B58
:0C089B00787FE4F6D8FD75810B020800A0
:10088500EB9FF5F0EA9E42F0E99D42F0EC6480C8EA
:0608950064809845F0228A
:00000001FF
