:100A7A00750A00750B01C290C291C292C293C294C8
:100A8A00C295C296C297C2A0C2A1C2A2C2A3E50AD7
:100A9A0070FCE50B24FE602514603A14604F146064
:100AAA0064240470E930A0E6E50B6401450A70DEAF
:100ABA00120800050BE50B70D5050A80D130A1CECE
:100ACA00E50B6402450A70C612093D050BE50B7079
:100ADA00BD050A80B930A2B6E50B6403450A70AEBB
:100AEA00120B5B050BE50B70A5050A80A130A39ECE
:100AFA00E50B6404450A7096120BEA050BE50B70C8
:100B0A008D050A8089E50B6405450A708120A00CD1
:100B1A0020A10920A20620A303020A98D290D2910A
:100B2A00D292D293D294D295D296D297E4F508F57E
:100B3A0009AE08AF09E4FCFD7B407A9CF9F8D312B0
:100B4A000C795003020A980509E50970E405088042
:010B5A00E0BA
:10080000C290C291C292C293C294C295C296D2972C
:10081000E4F508F509AE08AF09E4FCFD7B407A9CDD
:10082000F9F8D3120C79400A0509E50970E70508C3
:1008300080E3D296C297E4F508F509AE08AF09E463
:10084000FCFD7B407A9CF9F8D3120C79400A05092B
:10085000E50970E7050880E3C296D295E4F508F54E
:1008600009AE08AF09E4FCFD7B407A9CF9F8D3128D
:100870000C79400A0509E50970E7050880E3C2958F
:10088000D294E4F508F509AE08AF09E4FCFD7B401D
:100890007A9CF9F8D3120C79400A0509E50970E74A
:1008A000050880E3C294D293E4F508F509AE08AFD9
:1008B00009E4FCFD7B407A9CF9F8D3120C79400ADC
:1008C0000509E50970E7050880E3C293D292E4F5D3
:1008D00008F509AE08AF09E4FCFD7B407A9CF9F805
:1008E000D3120C79400A0509E50970E7050880E391
:1008F000C292D291E4F508F509AE08AF09E4FCFD17
:100900007B407A9CF9F8D3120C79400A0509E50975
:1009100070E7050880E3C291D290E4F508F509AECE
:1009200008AF09E4FCFD7B407A9CF9F8D3120C79FE
:0D093000400A0509E50970E7050880E3228B
:10093D00D290C291C292C293C294C295C296C297EE
:10094D00E4F508F509AE08AF09E4FCFD7B407A9C9F
:10095D00F9F8D3120C79400A0509E50970E7050885
:10096D0080E3D291C290E4F508F509AE08AF09E431
:10097D00FCFD7B407A9CF9F8D3120C79400A0509ED
:10098D00E50970E7050880E3D292C291E4F508F518
:10099D0009AE08AF09E4FCFD7B407A9CF9F8D3124F
:1009AD000C79400A0509E50970E7050880E3C29254
:1009BD00D293E4F508F509AE08AF09E4FCFD7B40E0
:1009CD007A9CF9F8D3120C79400A0509E50970E70C
:1009DD00050880E3C293D294E4F508F509AE08AF9B
:1009ED0009E4FCFD7B407A9CF9F8D3120C79400A9E
:1009FD000509E50970E7050880E3C294D295E4F591
:100A0D0008F509AE08AF09E4FCFD7B407A9CF9F8C6
:100A1D00D3120C79400A0509E50970E7050880E352
:100A2D00C295D296E4F508F509AE08AF09E4FCFDD0
:100A3D007B407A9CF9F8D3120C79400A0509E50937
:100A4D0070E7050880E3C296D297E4F508F509AE84
:100A5D0008AF09E4FCFD7B407A9CF9F8D3120C79C0
:0D0A6D00400A0509E50970E7050880E3224D
:100B5B00D290C291C292C293C294C295C296D297BE
:100B6B00E4F508F509AE08AF09E4FCFD7B407A9C7F
:100B7B00F9F8D3120C79400A0509E50970E7050865
:100B8B0080E3C297C290D291D296E4F508F509AEF4
:100B9B0008AF09E4FCFD7B407A9CF9F8D3120C7981
:100BAB00400A0509E50970E7050880E3C296C29182
:100BBB00D292D295E4F508F509AE08AF09E4FCFD35
:100BCB007B407A9CF9F8D3120C79400A0509E509A8
:0F0BDB0070E7050880E3C292C295D293D29422AC
:100BEA00C290C291C292D293D294C295C296C2972F
:100BFA00E4F508F509AE08AF09E4FCFD7B407A9CF0
:100C0A00F9F8D3120C79400A0509E50970E70508D5
:100C1A0080E3C293C294D292D295E4F508F509AE64
:100C2A0008AF09E4FCFD7B407A9CF9F8D3120C79F1
:100C3A00400A0509E50970E7050880E3D296D291D2
:100C4A00C292C295E4F508F509AE08AF09E4FCFDC5
:100C5A007B407A9CF9F8D3120C79400A0509E50918
:0F0C6A0070E7050880E3C291C296D290D297221C
:03000000020C8F60
:0C0C8F00787FE4F6D8FD75810B020A7A2C
:100C7900EB9FF5F0EA9E42F0E99D42F0EC6480C8F2
:060C890064809845F02292
:00000001FF
