:10080000750A00750B01C290C291C292C293C29444
:10081000C295C296C297C2A0E50A70FCE50B24FE01
:10082000700302098C147003020AE3147003020BB4
:100830008C147003020C35240470DD30A0DAE50B53
:100840006401450A70D2C290C291C292C293C2940E
:10085000C295C296D297F508F509AE08AF09E4FC37
:10086000FD7B407A9CF9F8D3120C7A400A0509E521
:100870000970E7050880E3D296C297E4F508F50908
:10088000AE08AF09E4FCFD7B407A9CF9F8D3120C6A
:100890007A400A0509E50970E7050880E3C296D2A7
:1008A00095E4F508F509AE08AF09E4FCFD7B407A54
:1008B0009CF9F8D3120C7A400A0509E50970E7059E
:1008C0000880E3C295D294E4F508F509AE08AF09B3
:1008D000E4FCFD7B407A9CF9F8D3120C7A400A05BF
:1008E00009E50970E7050880E3C294D293E4F508AE
:1008F000F509AE08AF09E4FCFD7B407A9CF9F8D31A
:10090000120C7A400A0509E50970E7050880E3C280
:1009100093D292E4F508F509AE08AF09E4FCFD7B3B
:10092000407A9CF9F8D3120C7A400A0509E509705F
:10093000E7050880E3C292D291E4F508F509AE0814
:10094000AF09E4FCFD7B407A9CF9F8D3120C7A40A5
:100950000A0509E50970E7050880E3C291D290E431
:10096000F508F509AE08AF09E4FCFD7B407A9CF977
:10097000F8D3120C7A400A0509E50970E7050880EA
:10098000E3050BE50B7002050A02081820A003021C
:100990000818E50B6402450A6003020818D290C2E9
:1009A00091C292C293C294C295C296C297F508F5BD
:1009B00009AE08AF09E4FCFD7B407A9CF9F8D3123C
:1009C0000C7A400A0509E50970E7050880E3D29131
:1009D000C290E4F508F509AE08AF09E4FCFD7B40E0
:1009E0007A9CF9F8D3120C7A400A0509E50970E7F8
:1009F000050880E3D292C291E4F508F509AE08AF8C
:100A000009E4FCFD7B407A9CF9F8D3120C7A400A89
:100A10000509E50970E7050880E3C292D293E4F581
:100A200008F509AE08AF09E4FCFD7B407A9CF9F8B3
:100A3000D3120C7A400A0509E50970E7050880E33E
:100A4000C293D294E4F508F509AE08AF09E4FCFDC1
:100A50007B407A9CF9F8D3120C7A400A0509E50923
:100A600070E7050880E3C294D295E4F508F509AE75
:100A700008AF09E4FCFD7B407A9CF9F8D3120C7AAC
:100A8000400A0509E50970E7050880E3C295D2969A
:100A9000E4F508F509AE08AF09E4FCFD7B407A9C5B
:100AA000F9F8D3120C7A400A0509E50970E7050840
:100AB00080E3C296D297E4F508F509AE08AF09E4E1
:100AC000FCFD7B407A9CF9F8D3120C7A400A0509A8
:100AD000E50970E7050880E3050BE50B7002050AE0
:100AE00002081820A003020818E50B6403450A60F9
:100AF00003020818D290C291C292C293C294C295C6
:100B0000C296D297F508F509AE08AF09E4FCFD7B63
:100B1000407A9CF9F8D3120C7A400A0509E509706D
:100B2000E7050880E3C297C290D291D296E4F50817
:100B3000F509AE08AF09E4FCFD7B407A9CF9F8D3D7
:100B4000120C7A400A0509E50970E7050880E3C23E
:100B500096C291D292D295E4F508F509AE08AF0994
:100B6000E4FCFD7B407A9CF9F8D3120C7A400A052C
:100B700009E50970E7050880E3C292C295D293D2D5
:100B800094050BE50B7002050A02081820A0030269
:100B90000818E50B6404450A6003020818C290C2F5
:100BA00091C292D293D294C295C296C297F508F59B
:100BB00009AE08AF09E4FCFD7B407A9CF9F8D3123A
:100BC0000C7A400A0509E50970E7050880E3C2933D
:100BD000C294D292D295E4F508F509AE08AF09E4C3
:100BE000FCFD7B407A9CF9F8D3120C7A400A050987
:100BF000E50970E7050880E3D296D291C292C295CA
:100C0000E4F508F509AE08AF09E4FCFD7B407A9CE9
:100C1000F9F8D3120C7A400A0509E50970E70508CE
:100C200080E3C291C296D290D297050BE50B700279
:100C3000050A020818E50B6405450A600302081856
:100C400020A003020818D290D291D292D293D294CB
:100C5000D295D296D297F508F509AE08AF09E4FC13
:100C6000FD7B407A9CF9F8D3120C7A5003020818E5
:0A0C70000509E50970E4050880E0BD
:03000000020C905F
:0C0C9000787FE4F6D8FD75810B020800A7
:100C7A00EB9FF5F0EA9E42F0E99D42F0EC6480C8F1
:060C8A0064809845F02291
:00000001FF
